:100000000C94EC040C9433050C9433050C943305D8
:100010000C9433050C9433050C9433050C94330580
:100020000C9433050C9433050C94FE1E0C94D11FD4
:100030000C946A160C9433050C9433050C94330518
:100040000C9433050C9433050C9433050C94330550
:100050000C9433050C94D2160C9433050C94330590
:100060000C9433050C9433050C9433050C94330530
:100070000C9433050C9433050C9433050C94330520
:100080000C9433050C9433050C9433050C94330510
:100090000C9433050C9433050C9433050C94330500
:1000A0000C9433050C9433050C94330535003A0059
:1000B0003B003C003D004000410042000000007059
:1000C0002B0014001A000800150018000C00120084
:1000D00013002A00390004001600070009000D0073
:1000E0000E000F0033003400E1001D001B0006006D
:1000F00019001000360037003800E500000043000A
:10010000E2000151E00028000251E7004400000035
:10011000E30005000A0017003E003F001C000B0032
:1001200011002C000100010001000100010001008C
:1001300001000100010001000100010001000100B7
:10014000010024002500260001000100010001003B
:100150002B0001000100210022002300010001000A
:10016000010001000100010001001E001F0020002D
:100170000100010001000100010001000100270051
:100180000100010001000100010001000100010067
:100190000100010001000100010001000100010057
:1001A0000100010001000100010001000100010047
:1001B00001000100260227022D000100520001006B
:1001C00001000100010001002F0030002E0250004C
:1001D00051004F0001000100010001002F02300218
:1001E00031000100010001000100010001000100D7
:1001F00001000100010001000100010001000100F7
:10020000010031022E002D02010001000100010059
:1002100001000100010001000100010001000100D6
:1002200001000100010001000100010001000100C6
:1002300001000100010001000100010001000100B6
:1002400001000100010001000100010001000100A6
:1008200001000100010001000100010012036B0042
:100830006500790062006F006100720064000000D2
:10084000160371006D006B006200750069006C009A
:1008500064006500720000000403090409026D00D1
:10086000040100A0FA0904000001030101000921AC
:10087000110100012240000705810308000A090454
:1008800001000103010200092111010001224D00B4
:100890000705820308000A090402000103000000A2
:1008A0000921110100012236000705830308000A0F
:1008B00009040300010300000009211101000122C5
:1008C0003900070584032000011201100100000017
:1008D00008EDFE606001000102000105010906A1AA
:1008E00001050719E029E715002501950875018123
:1008F00002050819012905950575019102950175F3
:100900000391010507190029F71500250195F875D0
:10091000018102C005010980A1018502160100269E
:1009200003001A81002A8300751095018100C0051B
:100930000C0901A1018503160100269C021A010081
:100940002A9C02751095018100C005010902A101D0
:100950000901A100050919012905150025019505C1
:100960007501810295017503810105010930093185
:100970001581257F95027508810609381581257F27
:10098000950175088106050C0A38021581257F95A9
:100990000175088106C0C005010906A101050719F6
:1009A000E029E7150025019508750181029501757B
:1009B0000881010508190129059505750191029520
:1009C00001750391010507190029FF150026FF0095
:1009D000950675088100C00011241FBECFEFDAE034
:1009E000DEBFCDBF04B603FE27C0809146029091C2
:1009F0004702A0914802B09149028730904BA7402E
:100A0000B04BD1F410924602109247021092480265
:100A10001092490214BE84B7877F84BF0FB6F89442
:100A2000A8958091600088618093600010926000BA
:100A30000FBEE0E0F8E3099511E0A0E0B1E0EAE2E2
:100A4000F6E402C005900D92A833B107D9F722E071
:100A5000A8E3B1E001C01D92A634B207E1F70E94FD
:100A60004D1C0C9413230C94000090E080E008953A
:100A70000895089581E0089582FF03C0269A2E9874
:100A800008952698FCCF81E008950C943A050E94C1
:100A9000E30E2FEF84E39CE0215080409040E1F78B
:100AA00000C000000C94F716FF920F931F93CF9392
:100AB000DF938C01FC01C081D1818091780181118B
:100AC0003FC082818823B9F1CE010E944A14F82EDA
:100AD000682FCE010E94F013BE018F2D0E949B064D
:100AE000EC01B8010E944505882309F44AC0B80109
:100AF000CE010E94AB08882309F443C0C531F0E75A
:100B0000DF0718F5C23080E7D80708F04BC0C115E1
:100B1000E0E7DE0789F1C130D047D1F181E0809371
:100B20003A0180933B01C801DF91CF911F910F9152
:100B3000FF900C944305CE010E941F14F82ECCCFD9
:100B4000CE010E944A14BE01C9CFCC3380E7D8073A
:100B500009F4ACC0CD33D04709F7F801828188236E
:100B600009F4CBC010923B010E949C16909339016E
:100B70008093380180E2A7C0F801828181110E9430
:100B8000470580E0DF91CF911F910F91FF9008956D
:100B9000F80182818823A9F3809106028160809305
:100BA0000602EFCFF8018281882309F4BCCF0E94AE
:100BB000FB15811102C00E94E1150E94181690E0F9
:100BC0009093380280933702FE01E350F047809102
:100BD00037028160E231F105C8F4EF50FA4F0C940E
:100BE000C32203060F06130617061B061F0623065D
:100BF00027062B062F06330637063B063F0643061D
:100C000047064B064F068091370282608093370279
:100C1000809137020E941C160E94E30EB2CF809191
:100C200037028460F3CF809137028860EFCF8091E4
:100C300037028061EBCF809137028062E7CF8091ED
:100C400037028064E3CF809137028068DFCF8091E4
:100C500037028460EACF809137028E7FD7CF8091B0
:100C600037028D7FD3CF809137028B7FCFCF80919A
:100C70003702877FCBCF809137028F7EC7CF80919D
:100C800037028F7DC3CF809137028F7BBFCF80919A
:100C900037028F77BBCF809137028B7FEACF90915D
:100CA0003702892F97FB87F98058B0CFF8018281EE
:100CB000882361F010923A010E949C1690933901AA
:100CC0008093380182E00E946D0C5BCF80913A01E5
:100CD00081110FC080913801909139010E94A816AE
:100CE000883C910530F486E20E94420B86E20E9425
:100CF0001E0C82E00E94740C44CF80913B01811154
:100D00000FC080913801909139010E94A816883C4B
:100D1000910530F487E20E94420B87E20E941E0C8C
:100D200080E2E8CF0C94FA080C94FC080C943C0583
:100D30000C9496060895972F70E02AE0929F600D1C
:100D4000711D1124FB019CE3899FE00DF11D11240D
:100D5000EE0FFF1FE455FF4F859194910895FC011C
:100D6000EE0FFF1FE45DF74F8591949108950E9467
:100D70009B060E942A08811520E4920708F08DC086
:100D8000811540E3940708F0E8C0803E910508F023
:100D900071C0803C910508F0CCC0883A910580F480
:100DA000853A910508F0CAC08130910509F46EC0FA
:100DB00020F08430910508F069C090E080E008954B
:100DC0008D3B9105D0F7883A910509F404C1893A21
:100DD000910509F403C18A3A910509F402C18B3ADD
:100DE000910509F401C18C3A910509F400C18B3BCE
:100DF000910509F4FFC08C3B910509F4FEC08D3AC2
:100E0000910509F4FDC0803B910509F4FCC08E3AC0
:100E1000910509F4FBC08F3A910509F4FAC0813BB2
:100E2000910509F4F9C0823B910509F4F8C0833BB0
:100E3000910509F4F7C0843B910509F4F6C0853BA0
:100E4000910509F4F5C0863B910509F4F4C0873B90
:100E5000910509F4F3C0883B910509F4F2C0893B80
:100E6000910509F4F1C08A3B910509F4F0C080E0D6
:100E700094E408958F3F910509F048F4803F91056F
:100E800008F067C0883E910508F097CF0895811556
:100E900020E2920708F05FC00895811543E59407AA
:100EA00060F5811522E5920708F062C0811541E5E1
:100EB000940708F058C0811520E5920708F450C047
:100EC0009C0154E0369527955A95E1F7922F93703F
:100ED000482F437021E030E002C0220F331F4A95B3
:100EE000E2F73C68392B86958695837040E2849FB3
:100EF000C0011124822B932B0895811545E5940799
:100F000050F4811524E5920708F446C0982F8827ED
:100F1000846F906A0895811546E5940708F450C0DF
:100F20009C0130569F702115304108F046CF9062E9
:100F30000895805C91090E94AF060895853A910555
:100F400009F443C0863A910509F042C082E890E472
:100F50000895906508959F70EECF9927906C08953D
:100F60009F70906A0895982F8827816F906A0895DE
:100F7000AC014370552721E030E002C0220F331F3F
:100F80004A95E2F78695869540E2849FC001112438
:100F9000822B932B9C680895AC014370552721E068
:100FA00030E002C0220F331F4A95E2F786958695FE
:100FB00040E2849FC0011124822B932B9A680895EC
:100FC000982F882788279F71B2CF81E890E40895F1
:100FD00083E890E4089582EE94E4089589EE94E421
:100FE00008958AEE94E4089585EB94E4089586EBE1
:100FF00094E4089583EB94E4089584EB94E40895D5
:1010000087EB94E408958CEC94E408958DEC94E4DB
:10101000089583E895E408958AE895E4089582E9BF
:1010200095E4089584E995E4089581E296E40895AD
:1010300083E296E4089584E296E4089585E296E4D6
:10104000089586E296E4089587E296E408958AE298
:1010500096E41CCF8238910549F1B0F481339105B3
:1010600009F45CC048F48932910509F452C08A320F
:10107000910509F458C008958533910509F444C0D9
:101080008933910599F00895833E910531F138F443
:10109000803E910591F0823E9105B1F00895863E23
:1010A000910511F1873E910541F108952091370294
:1010B0002370C9F080EE90E008952091370220FF60
:1010C00012C089E390E008952091370222FF0BC0FF
:1010D00024FF2EC090E080E008952091370222FD89
:1010E0002AC024FDF7CF08952091370223FFFBCFBC
:1010F00024FDF0CF87EE90E008952091370223FF82
:10110000F0CF86EE90E008952091370225FD16C0BD
:1011100008952091370225FD14C0089520913702CB
:1011200026FD12C008952091370226FD10C00895B3
:1011300083EE90E0089582EE90E0089589E290E0D9
:10114000089585E390E008958AE290E0089581E3B0
:1011500090E0C9CF08950F931F93CF938C01FB01AB
:101160008281811106C0C1E08C2FCF911F910F9118
:101170000895C0914901C11125C00531104799F763
:101180000E94AA0881E0809349010E949C169093D6
:1011900048018093470110923C0110923E01109249
:1011A0003D011092400110923F01109242011092B5
:1011B0004101109244011092430110924601109295
:1011C0004501D2CF80914701909148010E94A81615
:1011D000883C910540F680913C01E82FF0E0EE0F4D
:1011E000FF1FE35CFE4F118300838F5F80933C0100
:1011F000C0E0BACF0C9438050C94390585B78068E7
:1012000085BF85B7806885BFADE1B1E061E070E082
:101210008D91E82FE295EF70F0E041A18F709B0176
:1012200001C0220F8A95EAF7922F9095942391A3FB
:1012300082A1822B82A381E0A332B80749F7A3E100
:10124000B1E061E070E08D91E82FE295EF70F0E0A1
:1012500041A18F709B0101C0220F8A95EAF7922F5E
:101260009095942391A382A1822B82A381E0AD313A
:10127000B80749F7E6E5F1E0AAE4B1E082E691E0DB
:10128000119211921D921D928E179F07C9F70C940F
:1012900092064F925F927F928F929F92AF92BF92EF
:1012A000CF92DF92EF92FF920F931F93CF93DF9332
:1012B0000AE411E09DE1E92E91E0F92EE801CC2449
:1012C000C394D12C99249394A880B9801982188250
:1012D000D7018D917D01E82FE295EF70F0E091A1AB
:1012E0008F70960101C0220F8A95EAF7892F822B11
:1012F00081A382A1822E8094882182A3B0EABA952C
:10130000F1F783E1482E81E0582E90E080E0D20191
:101310007D912D01472F42954F7050E0DA01909654
:101320007C90488159817F70D60102C0AA0FBB1FF3
:101330007A95E2F7BD01672109F057C0B601082E82
:1013400002C0660F771F0A94E2F7462B572B59838A
:10135000488301968A309105D1F681A1882281A225
:1013600082A1282B22A388819981A816B90641F071
:10137000909262010E949C16909364018093630195
:101380002296B3E2EB16B1E0FB0609F09DCF809107
:1013900062018823B9F080916301909164010E94F9
:1013A000A816069778F0E6E5F1E086E591E0D80129
:1013B0002D913D918D01219331938A179B07B9F7A8
:1013C000109262010E94940681E0DF91CF911F91FB
:1013D0000F91FF90EF90DF90CF90BF90AF909F90D4
:1013E0008F907F905F904F90089570E060E0ADCF58
:1013F000E82FF0E0EE0FFF1FEA5AFE4F8081918147
:101400000895089590936A01809369010895E09189
:101410006901F0916A01309721F00190F081E02D8F
:10142000099480E00895E0916901F0916A01309794
:1014300021F00280F381E02D09940895E091690183
:10144000F0916A01309721F00480F581E02D099434
:10145000089520916701309168012817390771F0CC
:101460009093680180936701E0916901F0916A01AE
:10147000309721F00680F781E02D0994089520919E
:101480006501309166012817390771F09093660164
:1014900080936501E0916901F0916A01309721F034
:1014A0000084F185E02D0994089508950C94550A5F
:1014B0000E9493160E94FE080C9464175F926F922C
:1014C0007F928F929F92AF92BF92CF92DF92EF92D4
:1014D000FF920F931F93CF93DF93CDB7DEB72A9779
:1014E0000FB6F894DEBF0FBECDBF0E9449099CE63F
:1014F000A92E91E0B92E10E000E088248394912C6D
:10150000502E802F0E94F8097C01F501C190D190E6
:101510005F01C816D90609F45EC08091060281FDFC
:101520000E94010A90E080E0CE24DF243401082EDE
:1015300002C0660C771C0A94E2F796012621372137
:10154000232B09F443C08E835F82E620F72081E0DD
:10155000EF2809F480E088870E949C168160782F2C
:101560009A8789874E815F8168858A850E94180BDA
:10157000000F111FF801E459FE4F80819181682608
:101580007926718260820E94E7190E94070A909171
:101590006B018917B9F10E94070A80936B012A96A3
:1015A0000FB6F894DEBF0FBECDBFDF91CF911F9174
:1015B0000F91FF90EF90DF90CF90BF90AF909F90F2
:1015C0008F907F906F905F900C94980601968A3070
:1015D000910509F0ABCF0F5F1F4F0630110509F0E1
:1015E0008FCF8FEF89838A831B820E949C16816034
:1015F000782F9D838C8349815A816B818D810E94D4
:10160000180BC1CF2A960FB6F894DEBF0FBECDBF20
:10161000DF91CF911F910F91FF90EF90DF90CF90CE
:10162000BF90AF909F908F907F906F905F90089544
:10163000CF93DF93CDB7DEB72B970FB6F894DEBF0D
:101640000FBECDBF4F83588769877A878B871E82ED
:101650001D8285E0FE013796DE01119601900D9204
:101660008A95E1F749815A816B817C818D819E81C8
:101670002B960FB6F894DEBF0FBECDBFDF91CF9192
:101680000C949511882309F4D8C0823871F40E9413
:10169000070A81FDD2C089E30E94EA140E94B215B4
:1016A00089E30E9427150C94B215833859F40E94DF
:1016B000070A80FDC2C083E50E94EA140E94B215A9
:1016C00083E5EFCF843859F40E94070A82FDB5C044
:1016D00087E40E94EA140E94B21587E4E2CF9CEFEF
:1016E000980F913A18F40E94EA14DDCF90E2980F17
:1016F000983050F4877091E001C0990F8A95EAF70D
:10170000892F0E946915CFCF9BE5980F933070F415
:10171000853A31F0863A39F083E890E00C94290A52
:1017200081E890E0FBCF82E890E0F8CF98E5980F51
:10173000953108F082C0883A09F440C0893A09F42A
:1017400040C08A3A09F440C08B3A09F440C08C3A50
:1017500009F440C08B3B09F440C08C3B09F440C005
:101760008D3A09F440C0803B09F440C08E3A09F438
:1017700040C08F3A09F440C0813B09F440C0823B2D
:1017800009F440C0833B09F440C0843B09F440C0E5
:10179000853B09F440C0863B09F440C0873B09F40F
:1017A00040C0883B09F440C0893B09F440C08A3BF3
:1017B00009F440C090E080E00C943F0A82EE90E093
:1017C000FBCF89EE90E0F8CF8AEE90E0F5CF85EB85
:1017D00090E0F2CF86EB90E0EFCF83EB90E0ECCFA0
:1017E00084EB90E0E9CF87EB90E0E6CF8CEC90E0E3
:1017F000E3CF8DEC90E0E0CF83E891E0DDCF8AE8A5
:1018000091E0DACF82E991E0D7CF84E991E0D4CFBB
:1018100081E292E0D1CF83E292E0CECF84E292E007
:10182000CBCF85E292E0C8CF86E292E0C5CF87E2D7
:1018300092E0C2CF8AE292E0BFCF0895882309F4F4
:101840004BC0823871F40E94070A81FF45C089E3CA
:101850000E94EA140E94B21589E30E9427150C9495
:10186000B215833859F40E94070A80FF35C083E51A
:101870000E94EA140E94B21583E5EFCF843859F430
:101880000E94070A82FF28C087E40E94EA140E948F
:10189000B21587E4E2CF9CEF980F913AF0F290E214
:1018A000980F983050F4877091E001C0990F8A9595
:1018B000EAF7892F0E946F15D2CF9BE5980F9330DE
:1018C00020F490E080E00C94290A885A853120F4B5
:1018D00090E080E00C943F0A0895882321F00E9454
:1018E00069150C94B2150895882321F00E946F1594
:1018F0000C94B21508958F929F92AF92BF92DF928F
:10190000EF92FF920F931F93CF93DF937C01D62F1B
:10191000C72FFC01058102950F70128111110E94E1
:1019200088150E94E314D82E882371F0112321F129
:1019300080E28D0F883000F182E00E94CD140E9479
:10194000E31491E0D82ED926EC2FE295EF70F0E069
:10195000E455F34F0C94C322BE0CBE0C0E0D0E0DBD
:10196000500D6C0DEB0CEB0C770DEB0C0F0E0F0EFE
:10197000820EEB0CEB0C8B0ED12CE6CF0C2F0F70E4
:10198000C07F11F00295007F1123A9F0002359F0C8
:1019900080E28D0F883010F0D11109C0802F0E9495
:1019A00069150E94B2158D2F0E94420B14C0802F22
:1019B0000E947A15F6CF8D2F0E941E0C002359F03D
:1019C00080E28D0F883010F0D11124C0802F0E944A
:1019D0006F150E94B215DD2009F4A4C10E94C01445
:1019E00080FDA0C1F70112820E94BA140E94341334
:1019F000C7010E949E0E0E94BA14DF91CF911F91E1
:101A00000F91FF90EF90DF90BF90AF909F908F90DD
:101A10000C945513802F0E948015DBCFFC2FFF7094
:101A2000BF2EC07FC03219F0B29480EFB822DD2300
:101A300069F0D13029F1112369F1002359F0F70140
:101A4000858180FFB0CF8F70858304C0112361F042
:101A5000011104C08B2D0E946D0CBDCF8B2D013068
:101A6000D1F70E949C15B7CF011106C00E949F15A7
:101A70008B2D0E94740CAFCF013009F4ACCFF6CFA0
:101A8000112321F0063008F0A6CFE4CF053008F08E
:101A9000A2CFEECF002361F38D2F0E941E0C9BCFAF
:101AA0008C2F86958695837069F0813009F093CFED
:101AB0008D2F9C2F9370111102C090E080E00E9446
:101AC0003F0A89CF8D2F9C2F9370111102C090E097
:101AD00080E00E94290A7FCF8D2F112329F00E94D8
:101AE000F0180E94DC1977CF0E945819FACF8C2F7A
:101AF000837009F047C011116ECF2D2F22952695C6
:101B00002770220F220F6D2F6F70862E912CB12C13
:101B1000A12C022E04C0880C991CAA1CBB1C0A9480
:101B2000D2F760E070E0CB01D4FF0FC06FE070E04F
:101B300080E090E004C0660F771F881F991F2A95E8
:101B4000D2F76095709580959095C695C695C370AF
:101B5000C23051F080F4682979298A299B29C13043
:101B600071F00E94DD1237CF682979298A299B29D3
:101B70000E94F91230CF0E94DD12C501B4010E940B
:101B8000C11229CF8695112311F08C2F81708823E3
:101B900009F421CF2D2F229526952770220F220F91
:101BA0006D2F6F70862E912CB12CA12C022E04C0AB
:101BB000880C991CAA1CBB1C0A94D2F760E070E048
:101BC000CB01D4FF0FC06FE070E080E090E004C074
:101BD000660F771F881F991F2A95D2F76095709519
:101BE00080959095C695C695C370C23051F080F42B
:101BF000682979298A299B29C13071F00E94B7137D
:101C0000EACE682979298A299B290E94D313E3CE39
:101C10000E94B713C501B4010E949B13DCCEE0E221
:101C2000ED0FE53108F062C0F0E0E75EF14F0C9493
:101C3000C3222E0E2E0E2E0E2E0E2E0E2E0E2E0E1B
:101C40002E0E2E0E2E0E2E0E2E0E2E0E2E0E2E0EB4
:101C50002E0E3B0E490E500E570E610EDF708C2F6C
:101C60008F71112321F00E9434138D2FF4CE0E9426
:101C700055138D2FFECE112341F0053008F0ABCE69
:101C80008C2F8F710E947A13A6CE063008F0A3CE57
:101C9000F7CF8C2F8F71112339F00E9434139BCE14
:101CA0008C2F8F711123C9F30E94551394CE1123E9
:101CB00029F08C2F8F710E941F138DCE0E94151357
:101CC0008ACE112349F0CF718C2F0E94341363E028
:101CD0008C2F0E94C4147FCE81E00E94CD1402306C
:101CE00008F479CE82E00E94CD1475CE112329F03C
:101CF000011159CE8C2F8F71D0CF0111CDCE8C2FE9
:101D00008F71D2CF4C2F4F706D2FC7010E943505B8
:101D10000E943E1260CE4C2F4F706D2FC7010E9463
:101D20009A0659CEDF91CF911F910F91FF90EF90BE
:101D3000DF90BF90AF909F908F9008950F931F9367
:101D4000CF93DF93EC01988189812B813C81232BF8
:101D500039F08F3F19F481E09F3F19F080E001C016
:101D600081E080FD17C0CE010E945405882391F0C8
:101D7000688179818A810E9496148C010E94EF13F8
:101D80000E94B612B801CE01DF91CF911F910F9141
:101D90000C947B0CDF91CF911F910F9108950E94BD
:101DA00088150E9499150E945B150E94B2150E9429
:101DB000891A0E94DC1990E080E00E94290A90E0D4
:101DC00080E00C943F0A0E9477150C94CF0E0E947D
:101DD0008C14E92FE295EF70E250EE30E0F4F0E081
:101DE000EC50F14F0C94C322020F020F0B0F0B0F9C
:101DF0000D0F0B0F0B0F0B0F020F020F120F0B0F1C
:101E00000B0F120F803F19F020F4803E20F481E088
:101E10000895843FE1F380E00895803EC0F3813F60
:101E2000D1F7F5CF93FB882780F90895CF93DF93FF
:101E300000D000D01F92CDB7DEB70F900F900F905B
:101E40000F900F90DF91CF910895CF93DF9300D043
:101E500000D000D0CDB7DEB726960FB6F894DEBF1F
:101E60000FBECDBFDF91CF9108951F93CF93DF9326
:101E7000C091790116E080917A018C1304C0DF9142
:101E8000CF911F910895D0E01C9FF0011D9FF00D90
:101E90001124E558FE4F4081518162817381848114
:101EA00095810E94250F2196C770E5CF4091AB0127
:101EB0005091AC016091AD017091AE018091AF0184
:101EC0009091B0010C94250F1F93CF93DF938091D5
:101ED000B001807FD1F48091AD018823B1F0809171
:101EE0007901D0917A01B091AB01C091AC014091E0
:101EF000AE015091AF01A1E0BF3F09F0A0E0BA01EF
:101F00006095709516E0D81304C0DF91CF911F91B2
:101F1000089521E04115510521F02A2FCF3F09F006
:101F200020E090E020FD38C0189FF001199FF00DCF
:101F30001124E558FE4F21812C132EC020812B1334
:101F40002BC02281211128C0238134812417350719
:101F500000F1241B350B283C3105F0F42091B00131
:101F60002F7020612093B00126E0289FF001299F67
:101F7000F00D1124E058FE4F80818F7080618083C6
:101F80008BEA91E00E949E0EDF91CF911F910C94FD
:101F9000350F260F371FDFCF01968770B4CFAF9272
:101FA000BF92CF92DF92EF92FF920F931F93CF9346
:101FB000DF93CDB7DEB761970FB6F894DEBF0FBEE3
:101FC000CDBF8C0185E0F801DE011D9601900D92D8
:101FD0008A95E1F7D8014C9111965C911197129670
:101FE000EC903091AB016091AC018091AE01909189
:101FF000AF0121E0009731F06F3F19F421E03F3F3E
:1020000009F020E0B22FB170BB2E20FD80C1F80195
:10201000C380D480A090AD01AA2009F427C1C816BE
:10202000D906D0F1D601A81BB90BCD01FF24F3943A
:10203000883C910508F0F12C8091B001982F907F99
:10204000FF2009F4CAC0911187C0FE2C651329C076
:10205000341327C0E11025C08F7080618093B001D8
:102060000E94560F8BEA91E00E949E0E8091B00173
:10207000F80185838F2D61960FB6F894DEBF0FBEF1
:10208000CDBFDF91CF911F910F91FF90EF90DF9027
:10209000CF90BF90AF900895809590958C0D9D1D29
:1020A000C5CF81E0CD2831F05F3F19F481E04F3F8B
:1020B00009F080E080FD24C081E08E25F82FF170CA
:1020C000DF2E80FF3FC08091790120917A0136E0B8
:1020D000821318C04D875E878D859E850E948C1463
:1020E000292F22952F70223008F1243030F59F706F
:1020F00009F1D80115969C91907FE1F4FB2CBACFA1
:1021000080E0DCCF90E0389FF001399FF00D112482
:10211000E558FE4F6181561306C06081461303C027
:1021200062816E110FC001968770D2CF9F7011F03F
:10213000882321F3805E883008F3C8010E949E0E38
:10214000BD2CDCCFEE2009F495CF8091B0018160E9
:102150008093B001F12C8ECF651312C0341310C0E0
:10216000E1100EC0F8018583C8010E949E0E86E032
:10217000F801ABEAB1E001900D928A95E1F741C018
:102180004D875E878D859E850E94E70E882309F422
:10219000C8C0EE2009F4C5C08091B001803270F053
:1021A0002091AB013091AC0138872F831986DB86F3
:1021B000CA868C87CE0107960E949E0E86E0F801A3
:1021C000ABEAB1E001900D928A95E1F70E94640FAD
:1021D0000E94560FFF24F3944DCF911115C07C2D12
:1021E000D98AC88A6E2D89890E94160F8BEA91E0E0
:1021F0000E949E0E86E0EBEAF1E0DF011D928A95D7
:10220000E9F70E94560F36CF651312C0341310C081
:10221000E1100EC0F8018583C8010E949E0EEBEA12
:10222000F1E086E0DF011D928A95E9F7FA2C22CFD2
:102230004D875E878D859E850E94E70E882309F471
:1022400070C0EE2009F46DC08091B001803208F4B6
:10225000B5CF2091AB013091AC013A8329831B8229
:10226000DD82CC828E83CE010196A6CFC816D90618
:1022700038F1F601E81BF90BCF01F12C883C9105F0
:1022800008F03DC0FE2CEE2009F44BC0651326C0BB
:10229000341324C08091B00180FD17C0982F907F27
:1022A000A1F0D80115968C931597903F09F45CCF57
:1022B000982F907F905F8F70892B15968C9354CFB9
:1022C000809590958C0D9D1DD8CF86E0F801ABEAE6
:1022D000B1E001900D928A95E1F7CCCE4D875E87F3
:1022E0008D859E850E94E70E811168CF8091B00197
:1022F00081608093B001C8010E949E0EBBCE7C2DF0
:10230000D98AC88A6E2D89890E94160F73CFEE2054
:1023100041F04D875E878D859E850E94E70E811175
:102320004DCFC8010E949E0E55CF1F93CF93DF93D0
:10233000CDB7DEB72C970FB6F894DEBF0FBECDBF7A
:102340004F83588769877A878B879C87CE0107964A
:102350000E94CF0F882309F442C09F8188852A8577
:102360003B85232B39F08F3F19F481E09F3F19F013
:1023700080E001C081E080FD08C04F8158856985FB
:102380007A858B859C850E94250F16E080917901C6
:1023900090917A01891709F467C0819FC0011124C7
:1023A00085589E4F0E94CF0F882309F45DC0E091AD
:1023B00079011E9FF0011124E558FE4F40815181A3
:1023C00062817381848195810E94250F80917901BA
:1023D00090E001968770992780937901D7CF86E0A6
:1023E000FE013796DE01119601900D928A95E1F774
:1023F0009F8188852A853B85232B39F08F3F19F4EF
:1024000081E09F3F19F080E001C081E080FDBDCFF9
:1024100020917A0130E0C901019687709927409197
:1024200079014817190699F096E0929FD001939F81
:10243000B00D1124A558BE4FFE01319601900D92AA
:102440009A95E1F780937A010E94350F9ECF0E9402
:10245000E30E10927A011092790186E0EBEAF1E046
:10246000DF011D928A95E9F72C960FB6F894DEBF2E
:102470000FBECDBFDF91CF911F910895EF92FF92D4
:102480000F931F93CF93DF938C01892B81F0F12C55
:10249000EE24E394E8012196F8018491843770F4E6
:1024A000843008F05FC08130B1F08230A1F1DF915B
:1024B000CF911F910F91FF90EF900895853709F408
:1024C0004CC008F43DC09CE7980F903780F78F7799
:1024D0000E941E0C49C00E5F1F4FFE01849190E2C6
:1024E000980F983060F48770FE2D01C0FF0F8A9519
:1024F000EAF78F2F0E948B150E94B21502C00E942E
:10250000420B8F2D815030F2EFE9FFE03197F1F768
:1025100000C00000F7CF0E5F1F4FFE01849190E2D4
:10252000980F983050F48770FE2D01C0FF0F8A95E8
:10253000EAF78F2F0E949115DFCF0E941E0CE1CF8A
:102540000E5F1F4FFE01C491C150D8F28FE99FE08A
:102550000197F1F700C00000F7CF0E5F1F4FFE019B
:10256000F490CFCF0E94420B8E01CBCF08956093A1
:10257000DD017093DE018093DF019093E0010C9404
:10258000CF0E0F931F930091DD011091DE0120917A
:10259000DF013091E001DC01CB01802B912BA22BDC
:1025A000B32B8093DD019093DE01A093DF01B09304
:1025B000E0011F910F910C94CF0E0F931F93009188
:1025C000DD011091DE012091DF013091E001DC019D
:1025D000CB0180239123A223B3238093DD01909329
:1025E000DE01A093DF01B093E0011F910F910C94E5
:1025F000CF0E0F931F930091DD011091DE0120910A
:10260000DF013091E001DC01CB0180279127A22777
:10261000B3278093DD019093DE01A093DF01B09397
:10262000E0011F910F910C94CF0E1092D9011092DE
:10263000DA011092DB011092DC010C94CF0E41E024
:1026400050E060E070E004C0440F551F661F771F24
:102650008A95D2F74093D9015093DA016093DB0158
:102660007093DC010C94CF0E41E050E060E070E02C
:1026700004C0440F551F661F771F8A95D2F78091BB
:10268000D9019091DA01A091DB01B091DC01842B9A
:10269000952BA62BB72B8093D9019093DA01A093A9
:1026A000DB01B093DC010C94CF0E41E050E060E020
:1026B00070E004C0440F551F661F771F8A95D2F73C
:1026C00040955095609570958091D9019091DA016F
:1026D000A091DB01B091DC0184239523A623B723CD
:1026E0008093D9019093DA01A093DB01B093DC01D0
:1026F0000C94CF0E41E050E060E070E004C0440F65
:10270000551F661F771F8A95D2F78091D901909146
:10271000DA01A091DB01B091DC0184279527A6277F
:10272000B7278093D9019093DA01A093DB01B0938E
:10273000DC010C94CF0E0F931F930091D9011091DF
:10274000DA012091DB013091DC01DC01CB01802B2F
:10275000912BA22BB32B8093D9019093DA01A093F4
:10276000DB01B093DC011F910F910C94CF0E0F93FE
:102770001F930091D9011091DA012091DB01309172
:10278000DC01DC01CB0180239123A223B3238093BE
:10279000D9019093DA01A093DB01B093DC011F9182
:1027A0000F910C94CF0E0F931F930091D9011091AC
:1027B000DA012091DB013091DC01DC01CB018027C3
:1027C0009127A227B3278093D9019093DA01A09390
:1027D000DB01B093DC011F910F910C94CF0E089593
:1027E0002AE0929F800D1124982F977071E001C00C
:1027F000770F9A95EAF786958695869525E0829FCC
:10280000C001112450E040E0A62FB0E0FC01E40F2D
:10281000F51FEF54FE4F60819D01042E02C03695D6
:1028200027950A94E2F7217021952627272326274A
:1028300020834F5F5F4F4530510541F708952AE0EF
:10284000929F800D1124982F977086958695869576
:1028500025E0829FA001112470E060E080E0FA0191
:10286000E60FF71FEF54FE4F208130E0092E02C023
:10287000369527950A94E2F721703327062E01C07A
:10288000220F0A94EAF7822B6F5F7F4F6530710544
:1028900031F70895BF92CF92DF92EF92FF920F939C
:1028A0001F93CF93DF938C01C090D901D090DA01B0
:1028B000E090DB01F090DC018091DD019091DE0180
:1028C000A091DF01B091E001C82AD92AEA2AFB2AA7
:1028D000CFE1D0E0BC2ED701C6010C2E04C0B695C6
:1028E000A795979587950A94D2F780FD0EC02197FA
:1028F00088F7B12C8B2DDF91CF911F910F91FF9015
:10290000EF90DF90CF90BF900895B8018C2F0E9478
:10291000B706019761F3EECFCF93DF93EC010E94EE
:102920004A14BE01DF91CF910C94B7061F93CF9349
:10293000DF93EB0190917801992331F0CB01DF9186
:10294000CF911F910C948C14882379F0CB010E94B5
:102950004A14182F682FCE010E94F013BE01812F58
:10296000DF91CF911F910C94B706CB010E941F14E9
:10297000182FF4CF8091E10185958595859508956F
:102980008091E1018770089598E0899F900111245A
:10299000622B6093E1010C9434139091E1018095D6
:1029A00089238093E101282F277061F4282F082EB6
:1029B000000C330B9217130629F0859585958595A4
:1029C0000C94551308959091E101977081E009F4FA
:1029D00080E00895909112019923E1F090913702DF
:1029E00097FF18C0E82FE695E695E695EF3139F1A7
:1029F0002091000130910101E20FF32FF11D87704A
:102A000021E030E001C0220F8A95EAF78181822B14
:102A1000818308952091000130910101F9013296DE
:102A20009FEF40E05191851751F09F3F19F45111EC
:102A300001C0942F4F5F4E31A9F79F3F09F40895CD
:102A4000290F311D97FD3A95F901828308959091E0
:102A500012019923F1F09091370297FF1AC0E82FE5
:102A6000E695E695E695EF3129F120910001309148
:102A70000101E20FF32FF11D282F277081E090E074
:102A800001C0880F2A95EAF7809591818923818377
:102A900008952091000130910101F9013296205EE4
:102AA0003F4F9191891303C0DF0111971C92E217E8
:102AB000F307B9F7089581E090E0E0910001F0910B
:102AC0000101E80FF91F1082019680329105A9F7E4
:102AD000089590910502892B809305020895982FFF
:102AE00090958091050289238093050208951092A4
:102AF0000502089590910402892B809304020895A1
:102B0000982F909580910402892380930402089560
:102B100010920402089590910302892B809303027E
:102B20000895982F90958091030289238093030242
:102B300008951092030208958093E201089510927F
:102B4000E20108952091000130910101F9013196CF
:102B5000205E3F4F80E0919191118F5FE217F30764
:102B6000D1F70895E0910001F091010180910502F3
:102B70008083E0910001F091010180819091040235
:102B8000892B8083E0910001F09101018081909177
:102B90000302892B80839091E201992361F0E091F7
:102BA0000001F09101018081892B80830E94A21590
:102BB00081111092E20180910001909101010C9429
:102BC000130A6DEE7EEF90E080E00E94FD2260E04F
:102BD00082E090E00E94EB2260E083E090E00E94BF
:102BE000EB2260E084E090E00E94EB2260E085E070
:102BF00090E00C94EB2290E080E00E94E52221E03E
:102C00008D3E9E4F09F020E0822F089582E090E0F3
:102C10000C94DD22682F82E090E00C94EB2283E09C
:102C200090E00C94DD22682F83E090E00C94EB227E
:102C300084E090E00C94DD22682F84E090E00C9416
:102C4000EB2280913D02843039F11092070288E135
:102C500090E020E40FB6F894A895809360000FBE32
:102C60002093600080E00E94980683B7817F846093
:102C700083BF83B7816083BF7894889583B78E7F45
:102C800083BF0FB6F894A895809160008861809307
:102C90006000109260000FBE089508950895CF93CC
:102CA0000E944D160E9449090E944E16C0E08C2FCA
:102CB0000E94F809892B31F4CF5FC630C1F780E05C
:102CC000CF91089581E0FCCF0E94E30E0E94070A95
:102CD0000C9498061F920F920FB60F9211248F93A7
:102CE0009F93AF93BF9380910702811113C080918E
:102CF000330290913402A0913502B0913602419690
:102D0000A11DB11D8093330290933402A09335022C
:102D1000B0933602BF91AF919F918F910F900FBEEC
:102D20000F901F90189582E084BD93E095BD9AEFB7
:102D300097BD80936E0008952FB7F8948091330269
:102D400090913402A0913502B09136022FBF0895C0
:102D5000CF92DF92EF92FF920F931F932FB7F894C9
:102D600040913302509134026091350270913602E5
:102D70002FBF6A017B01EE24FF248C0130E020E0AC
:102D8000C016D106E206F30650F0481B590BCA01E3
:102D90001F910F91FF90EF90DF90CF9008954150D9
:102DA0005109F3CF1F920F920FB60F9211248F93F8
:102DB0009F93AF93BF938091330290913402A0917F
:102DC0003502B09136020196A11DB11D80933302E8
:102DD00090933402A0933502B0933602BF91AF9125
:102DE0009F918F910F900FBE0F901F9018950E948A
:102DF000831EF8942FEF87EA91E62150804090409F
:102E0000E1F700C0000087E090EBDC018093460210
:102E100090934702A0934802B093490288E19CE056
:102E20000FB6F894A895809360000FBE9093600051
:102E3000FFCFAF92BF92CF92DF92EF92FF920F93AC
:102E40001F93CF93C0E0CC24C394D12CE82EF12C57
:102E50008C2F0E94F8095C0110E000E0C601002EF2
:102E600002C0880F991F0A94E2F78A219B21892BBF
:102E700099F40F5F1F4F0A30110581F7CF5FC630FD
:102E800039F780E0CF911F910F91FF90EF90DF9085
:102E9000CF90BF90AF900895602F7C2F80E00E946C
:102EA0009B06E816F90629F781E0ECCFCF93C82FEF
:102EB0008CE20E941917882321F08C2FCF910C945B
:102EC000191780E0CF910895CF930E94FB158111CF
:102ED00002C00E94E115C5E608C00E9449098FE3BF
:102EE0009CE90197F1F700C00000C150B1F789E2F9
:102EF0000E9456178111EFC08AE20E945617811175
:102F00000E94E11585E00E94561781110E94F71674
:102F10000E9406168093060287E00E9456178823B7
:102F200071F08BE10E945617882309F4B1C090918B
:102F30000602892F8D7F91FF826080930602809127
:102F400006020E940A160E94181690E0909338021A
:102F50008093370280EE0E945617882341F09091AB
:102F60003702892F8E7F90FF81608093370289E33B
:102F70000E945617882341F090913702892F8D7F48
:102F800091FF82608093370282EE0E945617882359
:102F900041F090913702892F8B7F92FF846080935C
:102FA000370286EE0E945617882341F0909137022F
:102FB000892F877F93FF88608093370283EE0E947A
:102FC0005617882341F090913702892F8F7E94FF06
:102FD00080618093370285E30E945617882341F071
:102FE00090913702892F8F7D95FF80628093370201
:102FF00081E30E945617882341F090913702892F70
:103000008F7B96FF80648093370281E10E94561780
:10301000882341F090913702892F97FB87F98058D8
:1030200080933702809137020E941C1687E20E942B
:103030005617C82F8EE10E9456178111C2608FE18A
:103040000E9456178111C46080E20E9456178111B8
:10305000C86081E20E9456178111C06182E20E941D
:1030600056178111C06283E20E9456178111C06415
:1030700084E20E945617882341F1C0688C2F0E9479
:1030800013166C2F70E090E080E0CF910C94B71293
:103090008EE00E945617882339F090910602892FFE
:1030A0008B7F92FF846049CF80E10E9456179091F8
:1030B0000602882329F0892F877F93FF88603DCF00
:1030C000892F8E7F90FF816038CFC111D7CF0E94AA
:1030D0000F16682FD7CFCF91089580910A0280FFF5
:1030E00012C06091050185E0689FB00111247595BB
:1030F00067957595679560387105A8F56115710537
:10310000A1F1862F089581FF09C06091050185E036
:10311000689FB001112475956795EDCF82FF07C0B8
:103120006091050185E0689FB0011124E4CF2091F2
:103130000B022223A9F0909104016091050185E022
:10314000689FB00111242917B0F6269FA001279F80
:10315000500D1124692F70E0CA010E94AF22CBCF1D
:1031600065E070E0CECF8FE7089581E0089580910B
:103170000A0280FF0CC06091030170E075956795AD
:10318000759567956115710549F1862F089581FF41
:1031900006C06091030170E075956795F3CF60916B
:1031A000030182FD0BC090910B029923A1F0609165
:1031B000020180910301961738F0682F70E06038A3
:1031C000710500F38FE70895899FC001112470E015
:1031D0000E94AF22F4CF61E070E0D7CF81E0089584
:1031E000803F31F40E946D18819580930E020895FE
:1031F000813F19F40E946D18F8CF823F31F40E948C
:103200006D18819580930D020895833F19F40E94F3
:103210006D18F8CF893F29F40E94B71880930F02E8
:1032200008958A3F21F40E94B7188195F7CF8B3F0C
:1032300031F40E94B71881958093100208958C3F55
:1032400019F40E94B718F8CF843F31F480910C0232
:10325000816080930C020895853F21F480910C02D7
:103260008260F7CF863F21F480910C028460F1CF19
:10327000873F21F480910C028860EBCF883F21F4D6
:1032800080910C028061E5CF8D3F31F480910A027C
:10329000816080930A0208958E3F21F480910A0292
:1032A0008260F7CF8F3FB9F780910A028460F1CF37
:1032B000803FC1F480910E0287FD10920E02809132
:1032C0000D0281110EC080910E0281110AC0809101
:1032D0000F02811106C080911002811102C010926C
:1032E0000B020895813F29F480910E0218162CF3E9
:1032F000E6CF90910D02823F29F497FFE0CF109224
:103300000D02DDCF833F19F41916CCF3D8CF893FD6
:1033100039F480910F02181694F610920F02CFCF55
:103320008A3F29F480910F0287FFC9CFF6CF8B3FE8
:1033300039F48091100287FFC2CF10921002BFCFE4
:103340008C3F29F4809110021816BCF3B8CF843F4B
:1033500031F480910C028E7F80930C02B0CF853FB8
:1033600021F480910C028D7FF7CF863F21F480916C
:103370000C028B7FF1CF873F21F480910C02877F75
:10338000EBCF883F21F480910C028F7EE5CF8D3FFB
:1033900031F480910A028E7F80930A0290CF8E3F93
:1033A00021F480910A028D7FF7CF8F3F09F087CFFC
:1033B00080910A028B7FF0CF8CE092E00E941E0A7F
:1033C0000E949C16909309028093080208951F930F
:1033D000CF93DF9380910802909109020E94A81672
:1033E000AC0190910B022091060130E0911106C0D2
:1033F000209107018AE0289F90011124421753076A
:1034000080F080910D02C0910E0210910F02D091B8
:10341000100281110AC0C11178C0111176C0D111FA
:1034200074C0DF91CF911F9108959F3F19F09F5F66
:1034300090930B02181624F40E946D1880930D02CD
:1034400080910D0287FF05C00E946D1881958093C1
:103450000D021C1624F40E946D1880930E028091B8
:103460000E0287FF05C00E946D18819580930E02A1
:1034700060910D02662331F1C0910E02CC2311F14F
:10348000062E000C770B880B990B0E94B62123E3C4
:1034900033E343E35FE30E941A220E947E2160939C
:1034A0000D026C2FCC0F770B880B990B0E94B62165
:1034B00023E333E343E35FE30E941A220E947E2169
:1034C00060930E02111624F40E94B71880930F0225
:1034D00080910F0287FF05C00E94B71881958093E5
:1034E0000F021D1624F40E94B718809310028091D9
:1034F000100287FF05C00E94B718819580931002C3
:10350000DF91CF911F910C94DC199F3F09F08FCF71
:10351000A0CF85E0ECE0F2E0DF011D928A95E9F7AB
:1035200010920B0210920A020895809131020895C0
:10353000CF93DF9300D01F92CDB7DEB79C0180916F
:103540003D02843019F593E099833B832A8390935D
:10355000E9008FEF9091E800815095FD06C095ED50
:103560009A95F1F700008111F5CF8091E80085FF71
:103570000DC050E040E063E070E0CE0101960E9493
:10358000F31C8091E8008E778093E8000F900F90F5
:103590000F90DF91CF910895CF93DF9300D01F92CA
:1035A000CDB7DEB720913D02243031F522E02983EA
:1035B000805891099B838A8383E08093E9008FEF91
:1035C0009091E800815095FD06C095ED9A95F1F730
:1035D00000008111F5CF8091E80085FF0DC050E01B
:1035E00040E063E070E0CE0101960E94F31C809100
:1035F000E8008E778093E8000F900F900F90DF9196
:10360000CF9108959C0180913D028430F9F482E0CD
:103610008093E9009FEF8091E800915085FD06C0FE
:1036200085ED8A95F1F700009111F5CF8091E800C2
:1036300085FF0CC050E040E065E070E0C9010E94E9
:10364000F31C8091E8008E778093E8000895CF9373
:10365000DF93EC0180913D028430F1F490911201EE
:103660009923E9F09091370297FF19C08093E90000
:103670008FEF9091E800815095FD06C095E19A95F5
:10368000F1F700008111F5CF8091E80050E040E0B3
:1036900060E270E085FD1AC0DF91CF91089581E06E
:1036A0008093E9008FEF9091E800815095FD06C06E
:1036B00095ED9A95F1F700008111F5CF8091E80022
:1036C00085FFEACF50E040E068E070E0CE010E9464
:1036D000F31C8091E8008E778093E80080E2FE0181
:1036E000A1E1B2E001900D928A95E1F7D5CF8091EA
:1036F0003C02811109C00E94831E0E94E01E80913D
:10370000E20084608093E200089510923C020895E4
:10371000089508950C94641642E061EC81E00E94E3
:10372000011E42E061EC82E00E94011E42E061EC79
:1037300083E00E94011E42E261EC84E00C94011ED1
:1037400080913F02833009F455C030F4813071F12B
:10375000823009F491C008958A3009F47DC08B301D
:1037600009F463C0893009F044C080913E0281327F
:1037700009F03FC08091420290914302009711F0FE
:103780000397B9F58091E800877F8093E8008091E6
:10379000E80082FF2AC08091F1008093310280917D
:1037A000E8008B778093E8000C94351E80913E02F0
:1037B000813AF9F48091E800877F8093E800809156
:1037C000420290914302892B61F460E281E192E030
:1037D00070E00E94421D8091E8008B778093E800A2
:1037E000089560E090E080E0F3CF80913D02811188
:1037F000CECF089580913E02813AD9F7809142025E
:1038000090914302892BA9F78091E800877F8093EC
:10381000E8008091E80080FFFCCF80911201809346
:10382000F1008091E8008E77BDCF80913E02813219
:1038300001F78091420290914302892BD1F6809149
:10384000E800877F8093E8000E94351E8091400247
:10385000809312010C94E30E80913E02813249F66E
:103860008091E800877F8093E8000E94351E809158
:10387000410280933202089580913E02813A09F01C
:10388000B8CF8091E800877F8093E8008091E800BE
:1038900080FFFCCF80913202C2CF84B7877F84BF84
:1038A0000FB6F894A89580916000886180936000BD
:1038B000109260000FBE80E880936100109261005A
:1038C0000E94560A0E94831E0E94E01E8091E20020
:1038D00084608093E20078940E9462210E94580ADA
:1038E00088E091E00E94020A80913D02853019F043
:1038F0000E945E0AF9CF0E94211680913B02882324
:1039000099F30E944F16882379F30E94DD1CECCFB7
:10391000292F33272330310579F158F4213031052F
:10392000F1F02230310519F190E080E030E020E044
:103930001AC02132310599F122323105A9F76430DC
:1039400098F770E0FB01EE0FFF1FE95DFE4F20814D
:1039500031816D5D7E4FFB01808190E004C082E18A
:1039600090E029EC38E0FA013183208308958DE658
:1039700090E02CE538E0F7CF99278130910561F090
:1039800028F0029789F6ECE2F8E002C0E8E5F8E0FA
:10399000849190E09F01E7CFE0E4F8E0F9CF643054
:1039A00008F0C2CFE62FF0E0EE0FFF1FE15DFE4F03
:1039B0002081318189E090E0D6CF80E189BD82E12C
:1039C00089BD09B400FEFDCF8091D8008F7D809322
:1039D000D8008091E00082608093E0008091E00058
:1039E00081FDFCCF0895AF92BF92CF92DF92FF92FC
:1039F0000F931F93CF93DF936C01EB018A010E9419
:103A0000541EF82E811123C00115110539F0F8015B
:103A100080819181C81BD90BC80ED91EB12CA12C55
:103A20002097A9F08091E80085FD22C08091E800F0
:103A30008E778093E80001151105A1F0F8018081CF
:103A40009181A80EB91EB182A08285E0F82E8F2D3B
:103A5000DF91CF911F910F91FF90DF90CF90BF909A
:103A6000AF9008950E94541E8823D1F2F82EEFCF14
:103A7000F60181916F018093F1002197FFEFAF1A5A
:103A8000BF0ACECFFC018091440290914502861777
:103A90009707A0F06115710529F49091E8009E77D1
:103AA0009093E80090E06115710551F4911108C000
:103AB0008091E80082FF35C080E00895BC01F2CF1C
:103AC00080913D028823C9F18530C9F18091E800D9
:103AD00083FD31C08091E80082FDEACF8091E8004B
:103AE00080FFE1CF2091F3008091F200322F282F48
:103AF0006115710519F02830310558F091E0283032
:103B0000310509F090E02091E8002E772093E8003D
:103B1000CACF81918093F100615071092F5F3F4FAF
:103B2000E7CF80913D02882341F0853041F08091BC
:103B3000E80083FFBDCF81E0089582E0089583E02F
:103B40000895FC01809144029091450286179707E1
:103B5000A0F06115710529F48091E8008E778093BB
:103B6000E80090E06115710551F4911108C0809151
:103B7000E80082FF36C080E00895BC01F2CF80915A
:103B80003D028823D1F18530D1F18091E80083FD99
:103B900032C08091E80082FDEACF8091E80080FF8A
:103BA000E1CF2091F3008091F200322F282F611590
:103BB000710519F02830310558F091E028303105B1
:103BC00009F090E08091E8008E778093E800CACFFA
:103BD00084918093F1003196615071092F5F3F4FBE
:103BE000E6CF80913D02882341F0853041F08091FD
:103BF000E80083FFBCCF81E0089582E0089583E070
:103C00000895982F973028F08F708093E90081E015
:103C100008959093E900242F762F50E0981731F003
:103C20007091EC002091ED005091F00021FD02C058
:103C30009F5FE8CF3091EB003E7F3093EB003091F7
:103C4000ED003D7F3093ED003091EB00316030931B
:103C5000EB007093EC002093ED005093F000209166
:103C6000EE0027FDE5CF80E0089580913E0287FFBA
:103C700013C08091E80082FF06C08091E8008B7736
:103C80008093E80004C080913D028111F2CF089535
:103C900080913D028823D9F38091E80080FFF8CF1E
:103CA0008091E8008E77ECCF2091E4003091E50020
:103CB00085E69091EC0090FF06C09091E80090FF9F
:103CC00006C080E008959091E80092FDFACF9091AF
:103CD0003D02992391F0953091F09091EB0095FD84
:103CE00010C04091E4005091E5002417350709F316
:103CF00081509A01F1F684E0089582E0089583E00E
:103D0000089581E008950E94F11E0E94F91EE0EEE0
:103D1000F0E0808181608083E8EDF0E080818F7742
:103D2000808319BCA7EDB0E08C918E7F8C9380814D
:103D30008F7E808310923C0208950F931F93CF9340
:103D4000DF930E94F11E0E94F91EC8EDD0E0888129
:103D50008F77888388818068888388818F7D888336
:103D600019BC10923D021092390210923B0210923F
:103D70003A0200EE10E0F80180818B7F8083888119
:103D80008160888342E060E080E00E94011EE1EEF5
:103D9000F0E080818E7F8083E2EEF0E080818160C0
:103DA0008083808188608083F80180818E7F80831A
:103DB000888180618883DF91CF911F910F91089551
:103DC000E8EDF0E080818F7E8083E7EDF0E0808198
:103DD0008160808384E082BF81E080933C020C9408
:103DE0009D1EE8EDF0E080818E7F80831092E200DE
:103DF00008951092DA001092E10008951F920F9238
:103E00000FB60F9211242F933F934F935F936F93AD
:103E10007F938F939F93AF93BF93EF93FF93809183
:103E2000E10082FF0BC08091E20082FF07C0809119
:103E3000E1008B7F8093E1000E9461218091DA0094
:103E400080FF19C08091D80080FF15C08091DA00F2
:103E50008E7F8093DA008091D90080FF94C080E14A
:103E600089BD82E189BD09B400FEFDCF81E0809368
:103E70003D020E94771B8091E10080FF19C0809174
:103E8000E20080FF15C08091E2008E7F8093E20007
:103E90008091E20080618093E2008091D80080628E
:103EA0008093D80019BC85E080933D020E94891B55
:103EB0008091E10084FF29C08091E20084FF25C049
:103EC00080E189BD82E189BD09B400FEFDCF80910A
:103ED000D8008F7D8093D8008091E1008F7E809301
:103EE000E1008091E2008F7E8093E2008091E20009
:103EF00081608093E20080913902882309F449C0EF
:103F000084E080933D020E948A1B8091E10083FF40
:103F100029C08091E20083FF25C08091E100877F66
:103F20008093E10082E080933D02109239028091FB
:103F3000E1008E7F8093E1008091E2008E7F80938C
:103F4000E2008091E20080618093E20042E060E064
:103F500080E00E94011E8091F00088608093F00054
:103F60000E94881BFF91EF91BF91AF919F918F911C
:103F70007F916F915F914F913F912F910F900FBE65
:103F80000F901F90189519BC10923D020E94851B3E
:103F900072CF8091E30087FD02C081E0B2CF83E061
:103FA000B0CF1F920F920FB60F9211242F933F9311
:103FB0004F935F936F937F938F939F93AF93BF9331
:103FC000CF93EF93FF93C091E900CF708091EC0005
:103FD0001092E9008091F000877F8093F000789440
:103FE0000E940D201092E9008091F000886080937B
:103FF000F000C093E900FF91EF91CF91BF91AF9195
:104000009F918F917F916F915F914F913F912F91F0
:104010000F900FBE0F901F9018951F93CF93DF93B3
:10402000CDB7DEB7AA970FB6F894DEBF0FBECDBFEF
:10403000EEE3F2E08091F100819322E0E634F207B2
:10404000C9F70E94A01B8091E80083FF42C08091C5
:104050003E0290913F029A3008F03BC0E92FF0E019
:10406000EC5CFF4D0C94C3223E206220692062204C
:104070006920BD20DF20692034214121803879F07A
:10408000823839F5809142028F708093E9008091E7
:10409000EB0085FB882780F91092E90006C080912B
:1040A0003A0290913B02911182609091E800977FD3
:1040B0009093E8008093F1001092F1008091E80065
:1040C0008E772DC0282F2D7F21F48823D1F08230C8
:1040D00059F18091E80083FF0AC08091E800877F52
:1040E0008093E8008091EB0080628093EB00AA96B9
:1040F0000FB6F894DEBF0FBECDBFDF91CF911F91F9
:10410000089580914002813021F7933009F080E0DA
:1041100080933B021092E9008091E800877F8093B2
:10412000E8000E94351ED5CF809140028111F2CF68
:10413000809142028F7069F28093E9002091EB0038
:1041400020FFE8CF933031F48091EB0080628093C0
:10415000EB00E0CF9091EB0090619093EB0021E0B9
:1041600030E001C0220F8A95EAF72093EA0010920E
:10417000EA008091EB008860EACF8111AACF10910C
:1041800040021F778091E3008078812B8093E300C9
:104190008091E800877F8093E8000E94351E80911F
:1041A000E80080FFFCCF8091E30080688093E3000B
:1041B00083E0111101C082E080933D028ACF8058D4
:1041C000823008F086CF80914002909141028C3D70
:1041D00023E09207A1F583E08A838AE289834FB7BF
:1041E000F894DE01139620E03EE051E2E32FF0E088
:1041F00050935700E49120FF03C0E295EF703F5FBA
:10420000EF708E2F90E0EA30C0F0C7968D939D93AB
:104210002F5F243159F74FBF8091E800877F80934B
:10422000E8006AE270E0CE0101960E94421D809192
:10423000E8008B778093E8004CCFC096E7CFAE01C3
:104240004F5F5F4F609142020E94881CBC01892B26
:1042500009F43FCF9091E800977F9093E80089811F
:104260009A810E94A11DE3CF803809F032CF80915E
:10427000E800877F8093E800809139028093F10005
:104280001DCF811126CF90914002923008F021CFAE
:104290008091E800877F8093E800909339020E9424
:1042A000351E80913902882331F084E080933D02ED
:1042B0000E948C1B0ECF8091E30087FDF6CF81E03A
:1042C000F5CF0895CF9380913D02882399F0C09156
:1042D000E900CF708091EC0080FD0EC080E0C82B1B
:1042E0001092E9008091E80083FD0E940D20CF70BC
:1042F000C093E900CF91089580E8F1CF0E94852115
:104300006894B1110C94142208950E94F92188F048
:104310009F5798F0B92F9927B751B0F0E1F0660F89
:10432000771F881F991F1AF0BA95C9F714C0B130CA
:1043300091F00E941322B1E008950C941322672F8C
:10434000782F8827B85F39F0B93FCCF386957795F9
:104350006795B395D9F73EF49095809570956195E2
:104360007F4F8F4F9F4F0895E89409C097FB3EF40D
:1043700090958095709561957F4F8F4F9F4F9923B2
:10438000A9F0F92F96E9BB279395F6958795779530
:104390006795B795F111F8CFFAF4BB0F11F460FFF0
:1043A0001BC06F5F7F4F8F4F9F4F16C0882311F048
:1043B00096E911C0772321F09EE8872F762F05C05C
:1043C000662371F096E8862F70E060E02AF09A95F7
:1043D000660F771F881FDAF7880F9695879597F9EC
:1043E000089557FD9058440F551F59F05F3F71F0E5
:1043F0004795880F97FB991F61F09F3F79F087954C
:104400000895121613061406551FF2CF4695F1DFD4
:1044100008C0161617061806991FF1CF8695710564
:10442000610508940895E894BB2766277727CB0198
:1044300097F908950E942D220C949E220E949022AA
:1044400038F00E94972220F0952311F00C948722D7
:104450000C948D2211240C9414220E94F12170F3EB
:10446000959FC1F3950F50E0551F629FF001729F19
:10447000BB27F00DB11D639FAA27F00DB11DAA1F28
:10448000649F6627B00DA11D661F829F2227B00D75
:10449000A11D621F739FB00DA11D621F839FA00D00
:1044A000611D221F749F3327A00D611D231F849F50
:1044B000600D211D822F762F6A2F11249F575040A7
:1044C0009AF0F1F088234AF0EE0FFF1FBB1F661F22
:1044D000771F881F91505040A9F79E3F510580F0EB
:1044E0000C9487220C9414225F3FE4F3983ED4F39B
:1044F000869577956795B795F795E7959F5FC1F78F
:10450000FE2B880F911D9695879597F9089597F939
:104510009F6780E870E060E008959FEF80EC089569
:1045200000240A9416161706180609060895002492
:104530000A9412161306140605060895092E03940C
:10454000000C11F4882352F0BB0F40F4BF2B11F480
:1045500060FF04C06F5F7F4F8F4F9F4F089597FBA1
:10456000072E16F4009407D077FD09D00E94C922C7
:1045700007FC05D03EF4909581959F4F0895709566
:1045800061957F4F0895EE0FFF1F0590F491E02D88
:104590000994AA1BBB1B51E107C0AA1FBB1FA6178A
:1045A000B70710F0A61BB70B881F991F5A95A9F7DC
:1045B00080959095BC01CD010895F999FECF92BDEB
:1045C00081BDF89A992780B50895A8E1B0E042E04E
:1045D00050E00C940523262FF999FECF92BD81BDA2
:1045E000F89A019700B4021639F01FBA20BD0FB631
:1045F000F894FA9AF99A0FBE08950196272F0E940F
:10460000EC220C94EB22DC01CB01FC01F999FECFEA
:1046100006C0F2BDE1BDF89A319600B40D9241504A
:0A4620005040B8F70895F894FFCF5A
:10462A00E3012808140A321E951A271B021BCC1A0A
:10463A00981A01349790C694F6F4F731339291F5AB
:10464A00353266404D363997094A091409DB086E36
:08465A00088708A008B9080058
:00000001FF
